S02600006563656E353832332D636F7572736570726F6A6563742D4A6F6C6F393035382E73333715
S21400000000000120E5330000E1330000E13300008A
S214000010E1330000E1330000E1330000E13300008B
S214000020E1330000E1330000E1330000E13300007B
S214000030E1330000E1330000E1330000E13300006B
S214000040E1330000DD630000E1330000E13300002F
S214000050555B000049640000E9630000016400008D
S214000060E1630000E1330000E1330000E13300000B
S214000070E1330000E1330000E1330000E13300002B
S214000080E1330000E1330000E1330000E13300001B
S214000090E1330000E1330000E1330000E13300000B
S2140000A0E1330000E1330000E1330000E1330000FB
S2140000B04D640000E5630000057F0000E1330000AA
S2140000C08D640000E1330000554C0000E133000071
S2140000D0E1330000E1330000E1330000E1330000CB
S2140000E0E1330000E1330000E1330000E1330000BB
S2140000F0E1330000E1330000E133000010B5054CA9
S214000100237833B9044B13B10448AFF300800123BE
S214000110237010BDB8000020000000004CB10000A5
S21400012008B5034B1BB103490348AFF3008008BD75
S21400013000000000BC0000204CB10000154B002B56
S21400014008BF134B9D46A3F5803A00218B460F4609
S2140001501348144A121A08F01EFF0F4B002B00D04B
S21400016098470E4B002B00D0984700200021040033
S2140001700D000D48002802D00C48AFF3008008F0B0
S214000180DBFE2000290002F0AFFA08F0C1FE00BF37
S2140001900000080000000120000000000000000031
S2140001A0B8000020342A00200000000000000000F4
S2140001B037B50446684680E8060003C8251D85E86E
S2140001C005002373069B2361BDF81C30A382002321
S2140001D02360084B1A6812B91C6004E00A461168CE
S2140001E00029FBD114609888013080B2988003B053
S2140001F030BD00BFD006002007B503790193054A3D
S2140002000368009306CA02230830FFF7D1FF03B045
S2140002105DF804FB209200000A4B40F2011210B574
S2140002201A604FF0FF329A6001225A6008441A465C
S214000230814202D1D869C04310BD11F8014B9461C8
S214000240F6E700BF00C0014070B5134C2268A2F16B
S2140002507E63A3F58433B3F5605FE0B005460E46D3
S21400026017D2126BA2F17E63A3F58433B3F5605FF9
S2140002700FD2536A69464FF4C0720020984730B9CF
S21400028023681B6B3246DB6A29466846984760B08F
S21400029070BD4FF40170FAE72808E10F0F4A10B45A
S2140002A01468A4F17E62A2F58432B2F5605F0B4654
S2140002B00FD2246BA4F17E62A2F58432B2F5605FA1
S2140002C007D22469064A0146A44600205DF8044B7E
S2140002D060474FF481705DF8044B70472808E10FC3
S2140002E02007002070B51C4D2A68A2F17E63A3F596
S2140002F08433B3F5605FE0B004D34FF40174204656
S21400030060B070BD136B002BF7D05B6A4FF4C07201
S21400031069460020984704460028F0D140F201269E
S2140003202A68A2F17E63A3F58433B3F5605FE4D256
S214000330126BA2F17E63A3F58433B3F5605FDCD263
S214000340936A002168469847B042E9D040F20323FA
S214000350984218BF0446D2E72808E10F154B02283A
S214000360D3F8803113D0032814D0012814BFDBB291
S214000370C3F307231B0323F47042B1B9BAB90E497D
S214000380CA6E22F470421343CB6601207047C3F353
S2140003900743EFE71B0EEDE70749D1F8E02022F40C
S2140003A070421343C1F8E030EFE7002AF4D0002093
S2140003B0704700BFB081E00F00300E40304B1A6F20
S2140003C0D96CC90702F0070242D5012A40D9132882
S2140003D051D9143813288CBF102308232849013B11
S2140003E0CA6C180322F47F4240EA03231343CB640B
S2140003F0244BCA6C1B88C2F303222833013202EB5B
S214000400820003EB5303B3FBF0F3C86C013B072BEE
S21400041020F0EE6028BF072340F4801040EA036314
S214000420CB64194BB3F90030002B10DB283350088F
S21400043000EB420203EB5303B3FBF2F30A6D072B08
S21400044028BF072322F0700242EA03130B657047A9
S214000450DB6CD90706D4012A04D809280BD90A3838
S2140004600928B8E7064BDB6C13F00103B6D0012A67
S21400047003D82728AFE70423B0E70023AEE700BF82
S21400048000300E40EE060020F006002042EA03236D
S21400049040F2011293422BD0B3F5817F08D2012B94
S2140004A01DD030D3B3F5807F31D0002213461CE038
S2140004B040F20122934222D006D8B3F5007FF4D151
S2140004C0174BD3F870310DE0B3F5407F23D040F2E0
S2140004D001329342E9D1124BD3F878310BE0104B3E
S2140004E0D3F87431C3F30722DBB203600A607047A7
S2140004F00B4BD3F874311A0EC3F30743F5E7084BDA
S214000500D3F87831EEE7064BD3F86C31EAE7044BC4
S214000510D3F86C31EFE7024BD3F87031EBE700BF4E
S214000520B081E00F044B1B685B0603D4034A1368D4
S214000530002BFCD1704700BF3C300E40C800C643BD
S2140005400E4B30B50E4C5B68C9B2002304EBC302F9
S21400055015798D4203D154F8335085420BD20133BE
S214000560052BF3D1032205494B6823F0407343EA79
S21400057002634B6030BD5279F5E700BF00000E40C5
S2140005802C91000038B5054C41F67133256C236478
S214000590FFF7D6FF0DB10023236438BD00000E40E0
S2140005A00C4B984210D90C4B984210D902220123CA
S2140005B00A490B600A49D1F8003123F0807343EAF8
S2140005C00263C1F80031704700221346F0E70122AB
S2140005D0FBE700BF0048E8010090D0034000C84396
S2140005E000400E40094B30B5196C5C6C0022234667
S2140005F042EA0104220C82701A0A210AC2701A0CFE
S2140006001B0E047041700271437130BDB081E00F63
S214000610214BD3F8F82102401CD170B4D3F8FC511A
S214000620D3F8006203F5FC74641BA410022C12D0ED
S214000630032C29D0012C1AD0184A52682A6005F1DA
S2140006400C026860C3F8FC21A96033680C33336081
S21400065070BC70477047114A1C1D52682A6068605B
S21400066004221960C3F8FC41326070BC70470B4C22
S2140006701A4664682C6042F8080B08205960C3F8D4
S214000680FC21306070BC7047044C6468A960C5E902
S2140006900040C3F8FC31E7E7C8230020001000E064
S2140006A0837DDB0701D5808A7047D0E901239B1A3A
S2140006B044BF828A9B1898B270470000044B5A6D5C
S2140006C022B95865A3F858100120704700207047DB
S2140006D070060020D0B50C4CE38C0A20584308F076
S2140006E07BF90646A08C0F4608F076F90022074BE9
S2140006F008F0DCF902460B463046394608F000FBA7
S21400070008F0E6FB2083D0BD700600200000F43F12
S214000710084A10B5146840F2E243584303FB01410F
S214000720536800F5807001EB50011844116050606A
S21400073010BD00BF7006002070B500228AB01346B8
S214000740D91003F00704415C2141CC0741BF0AA938
S2140007508918013201F8283C0133252BF0D10E4DC3
S2140007600023D91003F00704415C2141C90707D5CF
S214000770E91881F82A300133252BF2D10AB070BD72
S2140007800AAE93FBF2F102FB11313144EC1811F87A
S214000790286C84F82A60EEE770060020024B986CFE
S2140007A080B28002704700BFB081E00F7FB50E4B6D
S2140007B002466D4603F11006186859682C4603C4B5
S2140007C00833B3422546F7D1531E04A90F3211F859
S2140007D0014D13F8010F844204D19342F7D1012052
S2140007E004B070BD0020FBE71090000070B5154DFA
S2140007F0286810BB144B154CE41A154B1C4424F403
S214000800FF6424F00704FFF7C9FF844214D2666B26
S214000810A6B1FFF7C3FF864210D2FFF7BFFF06F16F
S214000820400383420AD83046FFF7C0FF30B1F36971
S21400083033F0080302D02C60286870BD04F500640D
S214000840E1E700BF3401002010000020B4000020C3
S21400085097B90000BFF34F8F0549064BCA6802F4EC
S214000860E0621343CB60BFF34F8F00BFFDE700BFCE
S21400087000ED00E00400FA050A4B1A68A2F17E6358
S214000880A3F58433B3F5605F09D2126BA2F17E63E1
S214000890A3F58433B3F5605F01D2D36B184740F2FB
S2140008A0011070472808E10F0D4B10B41C68A4F126
S2140008B07E63A3F58433B3F5605F0BD2246BA4F19B
S2140008C07E63A3F58433B3F5605F03D2A36B5DF854
S2140008D0044B184740F201105DF8044B704700BF08
S2140008E02808E10F064B1A68A2F17E63A3F584334D
S2140008F0B3F5605F01D2536A18470020704700BF07
S2140009002808E10F114B196801F1704303F5F8133D
S214000910B3F5006F0CD20E4B1B68A3F17E62A2F5F6
S2140009208432B2F5605F03D209680A4A914203D066
S21400093000230370836070471968074A9142F7D115
S214000940012202709A6842609B69F3E72800E10F73
S2140009502808E10FAD1007B007B0CD5E10B50C4605
S21400096030B90448FFF7CEFF034B23600423A3806F
S214000970002010BD900100209401002010B508B39F
S214000980114B1A68918881421CD39988814281BF95
S2140009900121126899809A6099889A6800242AB979
S2140009A004B19A604FF6FF71998009E0884204D03E
S2140009B00131126889B20124F1E70CB198809A607F
S2140009C0104610BD0022FBE7D806002037B50D46BE
S2140009D01446FFF7D3FFD8B10369828A63B14FF696
S2140009E0FE718A4208D100200090ADF804006946E6
S2140009F0984738B103B030BD2B602280286848B9CC
S214000A002080F7E7009B2B60BDF804302380F5E7D5
S214000A100120EFE70020EDE737B50D461446FFF757
S214000A20ADFF70B1036973B1818A4FF6FE729142D1
S214000A3009D10095ADF8044069460120984703B0F7
S214000A4030BD0120FBE70E20F9E7000037B503793B
S214000A50124A03330446019300F14403009306CA86
S214000A6002231430FFF7A4FB228A0192E268237A5D
S214000A70009204F12C0094E80600FFF799FB237A15
S214000A80A4F84500054684F844302279216804F12C
S214000A90470008F075FA284603B030BD18920000EB
S214000AA070B50E4C0E4B04F1100206460D4692E849
S214000AB00300183483E803001846FFF79DFB094B34
S214000AC094E8030002221A7283E80300DE601D82A7
S214000AD01846BDE87040FFF7B9BF00BF1090000091
S214000AE05C230020B80400202DE9F0410546164698
S214000AF08846FFF7D5FDAB8A181A80B2864228BF13
S214000B00064637465FB93EB1D5E901329A4202BF82
S214000B10AB7D43F00103AB753046BDE8F081AB8A90
S214000B202C68A8681C44241AA3B2BB428CBF3C465F
S214000B30A4B22246414608F023FAAB682968AA8A7E
S214000B4023440A44A0449342A7EB0404AB60A7B234
S214000B5028BFA960D6E770B5044615461E4611B3F1
S214000B60FFF79EFDA38A181A80B2012829D9E37DD3
S214000B7063B1E368628A1A70120A07D02068A18AF5
S214000B80013301448B4228BF0346F4E70023638207
S214000B90A368E360022204F112012046FFF7A4FFD7
S214000BA0E37D0133E375324629462046FFF79CFF76
S214000BB0638A03446382E37D13B9238A0344238252
S214000BC070BD0020FCE72DE9F04116460546884634
S214000BD0FFF766FD864228BF0646B6B237464FB9CF
S214000BE02EB1AB7DDA0744BF23F00103AB75304668
S214000BF0BDE8F081AB8A2C6869681C44641AA3B20D
S214000C00BB428CBF3C46A4B22246404608F0B8F928
S214000C106B682968AA8A23440A44A0449342A7EB37
S214000C2004046B60A7B228BF6960D8E770B51E469B
S214000C30038A04461546EBB9C27DDAB10123013AB0
S214000C400B70C27500F110010222FFF7BCFFE37DB6
S214000C509BB1228AB24228BF324629462046FFF779
S214000C60B2FF238A1B1A2382E37D13B9638A1B1AF9
S214000C70638270BD00230B70EBE7638A2382E8E78C
S214000C8070B50D46A8B9FFF7B1FD446BFFF7AEFD92
S214000C9058B12346084C03F14006186859682246A6
S214000CA003C20833B3421446F7D1044B2B60042327
S214000CB0AB80002070BD00BF380100205801002026
S214000CC02DE9F04385B088466946044681E80C0065
S214000CD00C9EBDF83470FFF751FE4FF6FE790546C0
S214000CE00DB1444505D94FF6FF74204605B0BDE862
S214000CF0F0832B7A9DF804209A421ED100996868EA
S214000D0008F051F9C8B9002EEFD02B69AA8AA3B112
S214000D104A4509D10290ADF80C0002A9984760B97F
S214000D20029BBDF80C2043B1974206D13A461946BD
S214000D30304608F038F90028D7D001342D68A4B220
S214000D40CEE70000F0B5354C85B011464FF48670FE
S214000D501F461646FFF75CFC236925462BB94FF461
S214000D608370FFF755FC05B0F0BD002F08BF082EB6
S214000D7021D16A460321206802F07EFE6368606126
S214000D805B7A23769DF80030DA1F53425341627E29
S214000D9063F30002029BE361BDF802306276638370
S214000DA004F11801236902209847012200212068D7
S214000DB002F06AFED7E7002F08BFB6F5800F03D112
S214000DC0002101209847CEE706F440520023134343
S214000DD009D04FF480714FF48170FFF719FC236936
S214000DE000210320EEE706F4A0620023134308D098
S214000DF001214FF48170FFF70BFC2B690021FF20C7
S214000E00E0E706F0A0520023134319BF012140F289
S214000E10011031464FF48370EDE700BFB02100208B
S214000E207FB502238DF80C30064B5A8B596918682B
S214000E300332029201AA02F023FE019807B05DF881
S214000E4004FB00BFB021002008B500214FF48570D8
S214000E50FFF7DEFB044B00221A611868012203210B
S214000E60BDE8084002F060BBB021002013B50D4B72
S214000E700D4C1B88ADF804300128ADF8003004BFD7
S214000E8002238DF8043001A908BF0423206808BF98
S214000E908DF8003002F056FD6946206802F06AFDC3
S214000EA002B010BD30900000B021002037B5124CC3
S214000EB0437A606000220092D0E90021206802F0A8
S214000EC054FE238CDB050CD563680C4D1A7A297802
S214000ED0914206D0012A06D0022A08D063681B7AFF
S214000EE02B7003B030BD206802F010FEF6E72068D5
S214000EF002F012FEF2E700BFB0210020CD0600206F
S214000F007FB51A4C1948637A0133DBB2272B88BFAA
S214000F1025236372FFF7CAFF257B627C144C1549B4
S214000F2020684FF40073023202F085FD6368124AAF
S214000F305B7A05F001052846D65CFFF797FF42F27C
S214000F40107300220293009201238DF80C30314674
S214000F5002AB206802F0ECFA28B1FFF775FFFFF746
S214000F60CFFF04B070BD054B2361FAE7D400002024
S214000F70B0210020E4000020EC9100008D17000056
S214000F8038B50D4611462C68A41A2246014408F0CE
S214000F9019F82C6038BD00002DE9F843514E524C2C
S214000FA0524FA41B524E3B68344424F4FF64C51AC7
S214000FB024F007044F48A5420560B946804672D320
S214000FC013445E19FFF7EAFBA0F5805086426AD804
S214000FD038688618B6F5806F03D9474B82221A7098
S214000FE05FE0464F384407F0CBFF454BC9F800603A
S214000FF01A681AB9332E54D97A6B1A601B689D4248
S21400100005EB06041DD8A3421BD203F11002A24230
S21400101047D85B1B1F443B4A3B4607F1100153F879
S214001020040B42F8040B8B42F9D13648FFF7BEFB9F
S21400103010B9314B8422D2E71022FF21384607F040
S214001040AAFF314F31483B6806F00306A41B044054
S21400105053B92840C0F500612144FFF70DFC3C6001
S21400106040B1254B8522BAE7A34203D2E11A03F525
S2140010700060F2E7D9F800202049D8F80000921B5B
S214001080FFF712FCD9F80020D8F800301749921B59
S214001090044613441948C8F80030FFF771FF002CC7
S2140010A0DFD1BDE8F8831A4B5B68B3F1827F124B41
S2140010B012D218780A4400268A4203D1002EF0D0B5
S2140010C01870EEE711F8017BFF2FF5D00126A54238
S2140010D034BF87208320EFE7A54234BF87228322D0
S2140010E07DE700BF10000020B4000020A8210020EB
S2140010F097B90000280B0020250B0020A81D002013
S214001100A41D0020941D0020AC21002000F8FFFF45
S2140011109C010020EFF3108072B670470B4A5369AB
S21400112011699B0003F03C03C1F381110B438370EC
S214001130136903F03F0343709369D26903F0F00329
S214001140C2F3031213430370704700BFD0FF0FE0D3
S214001150054A064B1B68136F23F007031843044B1E
S21400116010671888FFF72AB900300E408009C6437A
S214001170EC060020EFF3108072B6704700B962B636
S2140011807047000010B5034CA01DFFF7D5FA0023EA
S214001190236010BD741D002010B5094CB4F807106C
S2140011A0A079FFF7B5FAA368064AB4F80D10D18403
S2140011B0C3F30F239384FFF78DFA0023236010BD3B
S2140011C0741D002070060020034B044A997911759F
S2140011D000221A60704700BF741D002070060020B1
S2140011E0FFF7CCBF2DE9F0410D4F06460D461446DD
S2140011F00CB9BDE8F081EFF3108872B623462A4694
S21400120031463846FFF7A7FC03464046FFF7B6FFD1
S214001210002BEDD0E41AA4B21D440026E8E700BF78
S214001220581C002013B5002301F10804ADF8043063
S214001230ADF8060021461A46083151F8100C70B970
S2140012400BB1ADF8042004220DEB02010120083496
S214001250FFF7C8FF54F8101C39B902B010BD51F89A
S2140012600C3C1A4492B20123E6E734F80C2C00201A
S214001270EDE700007FB500230130CDE90101CDE99F
S21400128004336946044B009304200392FFF7CAFF19
S21400129007B05DF804FB00BF7E0100200E4A13680D
S2140012A0A3F17E63A3F58433B3F5605F10B50ED269
S2140012B0EFF3108072B6094900240B780C70FFF724
S2140012C05DFF3BB11368BDE810401B6A18474FF43A
S2140012D0817010BD1846FCE72808E10F711D00203C
S2140012E001282DE9F34740F038818B88012B40F028
S2140012F036810B681B7813BB9B4A9C4C13609C4A38
S21400130013609C4A13609C4A13609C4A13609C4A74
S21400131013709C4A13609C4A13602278022A01D1FB
S214001320FFF7BCFF01232370984B00241C70984BDA
S2140013301C70984B1C70204602B0BDE8F087032B4B
S21400134040F0F880934B894E1C78002C3DD13378C2
S214001350002B00F0E5808A4B1B78082B40F083803A
S214001360814B1868984688B98B4D2B68A3F17E632D
S214001370A3F58433B3F5605F58D34FF4017041F2A0
S2140013800803984200F0CE8080241EE010F0030789
S2140013901ABFC7F10407FFB2274600EB070ABAF5E3
S2140013A0806F00F2C3807D4B3A46FF21184407F059
S2140013B0F2FD744A7A4913680968C8F800A00AEB77
S2140013C003008842914603D9832400233370B2E792
S2140013D0674A15681D445544DFF8A0A125F4FF654B
S2140013E0DAF8000025F00705854209D9291A00F524
S2140013F00060FFF741FA08B18524E6E7CAF8005016
S214001400D8F80010D9F80000FEF748FFD9F80030E9
S214001410D8F80020544913440546DF1B5F48C9F836
S2140014200070FFF7ADFD002D9ED0E5E7FEF75AFFF2
S2140014300028A4D12A680190A2F17E63A3F5843324
S214001440B3F5605F0BD2126BA2F17E63A3F5843313
S214001450B3F5605F03D29369012101A898474C4B0E
S21400146001221A70B1E7002B5ED0484B1B78002B88
S2140014708AD0454F3B6843B93F4B4A49186810220B
S214001480FFF712FA0028A0D0B6E713F003021CBF3D
S214001490C2F10402D2B29D18B5F5806F46D8424814
S2140014A0FF21184407F077FD404A414B3148414937
S2140014B03D609B1A404A134402680B4093428046A4
S2140014C036D81544FFF76AF9A0F5805085423FF6F6
S2140014D07BAF3D68DFF8A4902A44D9F8000002EA02
S2140014E00105854208D9291A00F50060FFF7C4F9FE
S2140014F0002881D1C9F800503A682B49D8F8000076
S214001500FFF7D2F9D8F800303A681F490546134469
S2140015102548C8F80030FFF733FD002DACD06BE748
S214001520812452E7862450E784244EE782244CE741
S21400153087244AE7042B14D1204C1323022163701E
S21400154020462170FFF7BAF81D4A1E4B1289053255
S2140015509A801D4A1A6062789A710024EBE60D2480
S214001560E9E60624E7E600BF200B0020260B002055
S214001570BC230020280B0020A41D0020AC21002046
S214001580780100202C0B0020A8210020240B00202E
S21400159085010020250B00202808E10F20070020E9
S2140015A0C0230020941D0020A81D0020100000204D
S2140015B0B400002000F8FFFF97B90000881D002047
S2140015C070060020741D0020891C00000E4A136857
S2140015D0A3F17E63A3F58433B3F5605F10B50ED236
S2140015E0EFF3108072B6094B012419781C70FFF7D0
S2140015F0C5FD39B91368BDE81040DB6918474FF4DC
S214001600817010BD0020FCE72808E10F711D002046
S214001610134A144C08B5937E43F040039376124B5E
S21400162000221A70114B1B784FF000556BB1FFF774
S214001630CDFF0F4B2B600123A360236823F4E063E8
S21400164043F480632360FFF705F92B600123A36052
S214001650236823F4E06343F480632360FFF7FAF81B
S2140016607006002000500E40CC06002085010020A9
S21400167002020FF010B5134CA37E5B0621D4FFF7D1
S214001680E3FB2168A38C40F2E24202FB03122260D5
S21400169094F84F10A27A25200A4492FBF0F100FB42
S2140016A01122A27222890132228162680A2101FB7C
S2140016B003236360238B5A1E228313B90820FFF787
S2140016C0A7FF10BD700600202DE9FF41294C40F60B
S2140016D001002189FEF79CFFA37E13F0400242D151
S2140016E043F0010303F0FD0362F38203224AA3766C
S2140016F0136823B121899288914200D19847A37A32
S2140017001E4F1F48234493F82A306375FFF7CEFB1D
S214001710D4E900547B681B4A5B7A64082E1B12F8D7
S21400172003800120FFF7A2FB6435009600262544BF
S2140017306A46012441463346386802958DF80460AF
S2140017408DF80C608DF80D408DF80E6001F0F4FEFB
S214001750224605463146386802F096F935B1FFF75D
S21400176089FFFFF7B1FF04B0BDE8F081064B3B618F
S214001770F9E700BF70060020741D0020B02100208D
S2140017807C060020EC910000F118000002282DE9EC
S214001790F0411FD002D8012807D0FEE7032800F04A
S2140017A09C80FF2800F09980F7E74D4C237B980734
S2140017B007D5FFF749FBFFF7A3FB237B6FF3410336
S2140017C02373237B990701D4DA0764D4BDE8F0417C
S2140017D0FFF796BB4B784C68DB077ED5227802F085
S2140017E00F07032F59D0052F77D13E498B7B03F087
S2140017F00103B3EBD21F04F108004CD106220831D6
S21400180007F0D1FB8046002845D1FFF71DFBFFF708
S21400181007FB354D414606465C22284607F0BBFBD3
S214001820AB7E2F8343F02003AB76627E237E43EAB3
S2140018300223AB84627F237F43EA0223EB8494F87F
S2140018402330C3F3040385F84F3094F82330C3F3F2
S214001850421385F8503004F11E001B232B85FEF73B
S2140018606BFFD4F80E30E27CEB60A37C2E6043EA7C
S2140018700223227D607D43EA02432B61012795F80F
S2140018804F30AB722F75E18A3944FEF741FFFFF700
S2140018901BFF164B1F70BDE8F081124DAB7B03F0AB
S2140018A00103B3EBD21F04F10800F4D1062205F1C0
S2140018B0080107F078FB0028EDD1094C286894F859
S2140018C039204FF40073023204F1380102F0B3F805
S2140018D0237B43F002032373DDE7FFF7B5FA75E7D2
S2140018E0D4000020B021002070060020CC06002086
S2140018F002282DE9F7430F460BD003D8012800F045
S214001900B281FEE7032800F0B681FF2800F0B3811D
S214001910F7E748784E68BB4D10F0010461D14FF0F0
S214001920FF3140F60300FEF773FE2646AB7EB64C4C
S21400193013F0200F12D0696D6FF34513AB760029B4
S21400194000F09F80237895F85820627043F00303D8
S2140019502370A01C07F014FB00236B65AB48DFF870
S214001960D082FEF79DFEAA7E2378003018BF0120A5
S21400197060F34102C2F30011AA7661F38203C2F358
S214001980C00262F3C30360F304132370218840F699
S2140019900200FEF73DFE62789B49D8F8000002324E
S2140019A04FF40073D2B202F046F8AB7E7C68D907DB
S2140019B009D56FF30003AB7600236B60FFF730FAB0
S2140019C02860FEF787FE4EB1237803F00303022B50
S2140019D000F031816DD8012B00F02C8103B0BDE8FA
S2140019E0F083318840F60300FEF712FE3378A97EB6
S2140019F096F80080C3F3001363F38201A976C8F358
S214001A00C003C1F300118B4206D108F00303022B7A
S214001A1005D019D8012B31D00026344615E0A14652
S214001A20767896B17A48848AFEF73AFE201A80B213
S214001A30B9F1000F04D0022886BF023880B2002019
S214001A4086428CBF002401242646AB7EC8F380085D
S214001A50C3F3C002904507D082F0010262F3C303CD
S214001A60DBB243F02003AB76002C3FF45FAFAB7ED7
S214001A7081F0010161F30413AB7657E74FF00009DC
S214001A80CEE795F828306148A21C0DF10701FFF754
S214001A90CDF8C0B258B19DF80730002B0CBF01221C
S214001AA002222378607062F30103237056E7012256
S214001AB0F7E7A378022B65D011D8002B4DD0012B69
S214001AC038D0544A127822B1162B7FD0182B00F04B
S214001AD08C805148072202704370022127E00C2BAD
S214001AE018D0142B56D0082BEBD1B8F8201054F889
S214001AF0035FC8B205EA0002474801F47F41044686
S214001B0042EA0105092104F8011B0023C0F8015030
S214001B1063600CE040484FF0FF32037001234370CF
S214001B208270037102220023C27043710621FEF701
S214001B30C5FD53E7617A237A384A43EA0123938046
S214001B401346374943F8061B54F8031FC2F806101D
S214001B50A2889A80A2799A7140E7627B237B2F49FC
S214001B6043EA02238B800B462E4A43F8062B54F892
S214001B70032FC1F8062062685A6022891A81A27A69
S214001B809A722BE72A89254B05329A80264A1A60D4
S214001B90E278E0E7B4F80530B4F803201E48DB0826
S214001BA0934228BF13462B85152300216FF00404AB
S214001BB06FF0270203700723817081714470C27032
S214001BC003714471C27103720921B0E72279E37888
S214001BD01148134003F00303022B18BF01231722FA
S214001BE00270437083700321A1E76279A1790B4BE1
S214001BF042EA01229A800D4A1A60D4F80320C3F8FC
S214001C000620EBE670060020CC250020581C00209D
S214001C10401B0020701D0020881D0020741D002021
S214001C208511000099110000891C0000C9110000F0
S214001C30B021002000261248818AFEF731FD081ADE
S214001C40A51C80B2647826B1022886BF023880B20E
S214001C500020A3B283423FF6C1AE2A46314608486A
S214001C60FEF779FFBAE6074B9B7E9A073FF5B6AEBE
S214001C705B073FF5B3AEFFF7FDFCFFF725FDADE6CE
S214001C80401B00207006002008B5024B9879FFF72D
S214001C90BFFC00BF741D00202DE9F04F01288DB059
S214001CA040F091818A88002A00F08F81AE4E96F827
S214001CB00090B9F1000F00F08A81AC4B1C78984672
S214001CC05CB9AB48009005783DB9AA4D286817184E
S214001CD0B7F5806F05D982241C7020460DB0BDE88C
S214001CE0F08FDFF8B8B20968584407F049F9B9F13F
S214001CF0020F2F603FD0032FEFD99F4F3846FEF7D5
S214001D0001FE3B78DBF80020012B9C4B5FD19A420A
S214001D105FD1BB68DB0365D502233370FFF756FC43
S214001D20974B1A68A2F17E63A3F58433B3F5605F20
S214001D300BD2126BA2F17E63A3F58433B3F5605F1A
S214001D4003D2936805A9002098478E4B0598186023
S214001D508D4B069A8D4F1A608D4B00EA07024FF4A2
S214001D6000611A60FEF788FD60BBFEF73FFDD0B944
S214001D703378022BB1D1874A874F167838682B689C
S214001D8016F0F70F03EB0001914640F0CF807E4E31
S214001D9003F0030A3668A1EB0A01B14224D9832472
S214001DA088F8004099E74FF40061D0F83490FEF7C9
S214001DB063FD38B94FF4006109EA0700FEF75CFDE1
S214001DC00028D5D0852388F800301C4685E79A423F
S214001DD008D0842388F8003098F80030002B3FF4B1
S214001DE07CAFF0E78623F5E766490E681E44064496
S214001DF0674B0193A6EB0A0626F4FF66186826F0E2
S214001E000706864209D9311A00F50060FEF734FD50
S214001E10019B08B18524C3E71E6029683868A1EBDA
S214001E200A01FEF73BFA2B685249A3EB0A023B680D
S214001E300646134459483B60FFF7A2F8002EE9D146
S214001E4099F80030002B7FF448AF3B687F2B7FF774
S214001E5044AF03A905A8FEF7F7F910B9059B89F862
S214001E60003099F8003013F0F70F3FF436AFDFF884
S214001E7010912A68494904A807F082F8D9F800109A
S214001E803B68A1F17E62A2F58432B2F5605FC1D2F2
S214001E90096BA1F17E62A2F58432B2F5605FB9D219
S214001EA0CE683E4A00210846B0470028B2D13E68B8
S214001EB02F6801903A460BEB060004A907F060F87D
S214001EC03E44334A019B2E60354E1360354B73609B
S214001ED0D9F80020A2F17E63A3F58433B3F5605FE2
S214001EE098D2936A30484FF480519847002891D191
S214001EF0D9F800102B68A1F17E62A2F58432B2F503
S214001F00605F5DD2CF6A254A27483146B847064605
S214001F102A6818492148FFF733F840F203239E4207
S214001F201DD040F201239E4248D1D6E6144A3960BD
S214001F301168A1F17E62A2F58432B2F5605F35D2F7
S214001F40CE6A164A16491848B04706462A6809490E
S214001F501248FFF715F840F203239E4229D1009A53
S214001F6001231370B9E600BF260B0020250B0020C6
S214001F70240B0020200B00209C010020EB17A6035A
S214001F802808E10FBC230020C023002000F8FFFF34
S214001F90AC210020780100202C0B00202007002018
S214001FA0300B0020990F0000400B002040F2022664
S214001FB0CCE740F201239E423FF442AF8024EFE696
S214001FC040F20226A4E7002487E60D2485E6812455
S214001FD083E600BF2DE9F34106460F4690460728E4
S214001FE000F29180DFE800F004BF2621BA8F8F0E42
S214001FF04FF400754FF4807408230920002F00F07A
S214002000988086E001A8FFF789F89DF80530012B37
S21400201006D94FF400454FF480440E230F20EDE719
S2140020209DF80430022BF4D8FEE701240225002395
S2140020302046E3E7002979D04D4A536A13F0300F63
S21400204064D14C4BDB6B536AD90705D5536A23F032
S214002050300343F010035362042402230320464D4A
S214002060434A2B4414669B001A68002AFCD0B8F139
S214002070000F48D00544AD002B68002BFCD0022E84
S21400208041D1002F3FD03A4B5A6A12F0010F1A4640
S21400209041D04FF48062C3F8A82020225A665A6ABC
S2140020A012F0300F0CBF4FF440024FF40002D3F88A
S2140020B0901032EA0101FAD1520201D5D3F8A030CD
S2140020C02B4E012200210220D6F89C70FFF782FFDB
S2140020D0D6F89030726A294B22F0300242F0100295
S2140020E07262C7F30A07316BFA0903320F2A03EA52
S2140020F0010328BF0F223B4343EA0273336334666F
S2140021002B68002BFCD002B0BDE8F081042402232B
S21400211003200027A3E7536AD2F8903003F4400365
S214002120B3F5400FF8D1D2F8A030C9E7082502234E
S21400213003200F4A0121156601FA03F3D2F8901026
S2140021401942FBD1B8F1000FDDD00123084A03FA8B
S21400215000F0D2F890300342FBD1D4E720251024BB
S214002160042305204AE7802540240623072045E768
S21400217000400E4000300E408004F21000F8FF0FC2
S2140021800048704700F0490200F00F0001380728A9
S21400219048D8DFE800F0040F1947232D4735244BB5
S2140021A0D3F8943003F00703023B052B3CD8214AB2
S2140021B0D05C70471E4BD3F8803003F00703013B1A
S2140021C0042B33D81C4AF3E7194BD3F8843003F0BA
S2140021D00703013B042B29D8184AE9E7144BD3F828
S2140021E0883003F00703013B042B1FD8144ADFE7AF
S2140021F00F4B1B6F13F0010F14BF09200720704709
S2140022000B4BD3F85C3103F03003202B06D0302B79
S21400221006D0102B0CBF0720012070470420704703
S214002220082070470020704705207047012070473F
S21400223000400E403E900000449000004990000090
S21400224044900000FEE70000044B054A9A60D3F86D
S214002250882042F47002C3F88820704700ED00E042
S214002260000000000D4AD2F8943003F00703023B4A
S214002270032B0ED8DFE803F0020F0F0B0848D2F846
S2140022800031C3F304230133B0FBF3F07047054875
S214002290F5E70548F3E74FF40040F0E700400E404E
S2140022A000F0490260F59000C0EA2101154B1B685A
S2140022B05B0670B504460E4622D4FEF733F9124B81
S2140022C05B68C3F3014398421AD0104BD3F8003131
S2140022D0FFF7C8FF022C054602D12146FEF752F949
S2140022E0C4F1020210239340074A13610EB1FEF7B1
S2140022F019F92CB921462846BDE87040FEF742B9C8
S21400230070BD00BF3C300E4000300E4000400E4016
S214002310094B1B685B0610B50C460BD420B9074B5F
S214002320D3F80031FFF79EFF21460020BDE810409D
S214002330FFF7BCBF10BD00BF3C300E4000400E4053
S21400234008B5FFF78FFF044BD3F80831C3F3082313
S2140023500133B0FBF3F008BD00400E401128F8B57D
S21400236005460C4611D104290FD100216748674E57
S214002370FFF7CEFF05F00F05013D072D67D8DFE814
S21400238005F013066266608766920026F2E7604DE7
S214002390013C0C2C5BD8DFE804F0795B625A5A6982
S2140023A05A5A5A585A5A7200023C0A2C4FD8DFE83A
S2140023B004F04340343A4E4E4E4E4E06460003203E
S2140023C0052401221146FFF705FE524D4F482F6C9B
S2140023D041F671332B640021FEF7B2F80FB10023EB
S2140023E02B640EB1FEF79EF84B4B5C67FFF7A8FF19
S2140023F00446FFF737FFFEF7D3F8FEF793F8474B90
S21400240059682046C1F30141FEF7BCF8FEB93046D4
S2140024100121BDE8F840FFF77BBF4148FEF7C0F852
S21400242002200446CDE73E48FEF7BAF80124032012
S214002430C7E701200324C4E700200424C1E70724DB
S214002440C3E7384DA4E7384DA2E704232B60F8BD58
S214002450012211460020FFF7BDFD0223F6E7012208
S21400246011461046FFF7B6FD0123EFE7FFF7FAFE29
S214002470FEF796F82D4B01221A600323E6E70122A9
S21400248011460720FFF7A6FD0523DFE70023DDE75B
S214002490072C04D0092CDAD11F4B012201E01E4B79
S2140024A000221A67D3E7013C072CD0D801A353F8C3
S2140024B024F000BF072500004F2400004F24000032
S2140024C0F92400004F2400004F240000EB240000F5
S2140024D0D524000003221049D1F85C3123F03003E4
S2140024E043EA0213C1F85C31B1E701221146042029
S2140024F0FFF770FD0122EEE7012211460220FFF7EA
S21400250069FD0222E7E70022E5E700BF00F0490286
S21400251080400E4000000E4000400E4000300E404E
S2140025200148E80188400E4084400E400816C84323
S21400253038B5C0F30323013B04460D46092B1AD8D1
S214002540DFE803F031211A19052427192A2E174B24
S2140025500022C4F3043442B11548D0F84411C90728
S21400256003D4D0F840110A42FBD103F1047304EB04
S214002570C3039B001D6038BDFFF7E2FEFEF710F8B0
S21400258000220C4BE5E700220B4BE2E701220B4B47
S214002590DFE710220A4BDCE74FF48032094BD8E71E
S2140025A00022094BD5E70022014BD2E7B0400E408F
S2140025B000400E40B8400E40C0400E40E0400E4086
S2140025C0E8400E40F0400E4050410E402DE9F84FD6
S2140025D0404E414D96F800A0814688461746BAF10F
S2140025E0000F39D1FEF7DAF83C4CA0F58050206099
S2140025F0FEF7D4F8A0F50060606001213848FFF7C8
S21400260097FF216808200431FDF706FE23681B6843
S214002610834208BF2368616808BFD3F804B001F19D
S21400262004014FF008000CBF4FF0010AD346FDF737
S214002630F3FD63681B68834205D163685B685B458E
S21400264006D8002305E0BAF1000FFAD1FF2300E018
S21400265001232B700123337095F900305A1C28D0C3
S2140026601E4ADFF880A052F823600C3635464FF637
S214002670FF7BC5F30A030833B3F5006F19D2AB88A6
S2140026805B4516D0A879291D0430FDF7C5FD2B68DB
S214002690EC888342E4B202D1AB884B450CD00334BD
S2140026A004F4FE740834254486EA050313EA0A0F88
S2140026B0DFD0002038700AE03B78A342F9D32246E8
S2140026C005F10801404606F05BFC3C700120BDE8C1
S2140026D0F88F00BFC423002010000020E40600206E
S2140026E000650A0000F8FFFF2DE98048A34B5B68F1
S2140026F0ADB013F4806F24AF19D14FF00053002211
S2140027001A603846FEF7FEF8FEF770F8B0B1446B74
S214002710FEF75CFF269B5E0740F10881FEF766F831
S214002720FEF7E0F80446FEF7B9FD3CB115E14FF0C0
S21400273000531A68022AE0D100221A60904B012248
S2140027405A641A6842F480721A603846FEF7E6FC4D
S2140027509DF89130012B03D89DF89030022B09D9B3
S214002760884B4FF418721A60874A5A60874A5A662E
S214002770874ADA66874A884E136843F4F84313603C
S214002780864B02229A639A6B02F00F02022A40F0EE
S2140027901981DA6C22F0405222F0010242F0010266
S2140027A0DA64D3F8E02042F44072C3F8E0207C4AB2
S2140027B00F211180DA6E42F08072DA66794B186863
S2140027C000B10420FEF7C4FC774B744DC8221A8073
S2140027D0764BA0220F2000241A80FDF7EFFD744BE5
S2140027E0AB65CDE91C4424947C60D6F86831C3F30D
S2140027F00722DBB226921E93EB6CC3F3017A2246C5
S214002800534639461CA8FDF741FED5F8E030C3F321
S214002810012922464B4625A91DA8FDF737FEDDF8FF
S21400282098C01E9A1C9D2498DDF87480ACEB0201BB
S2140028304FF416735943B1FBF3F32146259CD21887
S2140028404FF4167BA0EB050328BF01210BFB03F317
S214002850B3FBFBF3ED18A4EB08032CBF4FF0010EFF
S2140028604FF0000E0BFB03F3B3FBFBF318EB030870
S2140028702CBF012300239445C0F0A480002940F01B
S214002880A1804445C0F09E80002B40F09B80A8426B
S214002890C0F09880BEF1000F40F094803F4CE36D8E
S2140028A023F4FE4323F0020343EA0223E365504683
S2140028B0FDF754FD002800F0858001214846FDF70D
S2140028C04DFD00287ED0636E454538BF4546E72D52
S2140028D023F4FF7328BFE72523F0010343EA4503EB
S2140028E06366E36B43F48063E3634AF6E853606B26
S2140028F06363214623469A6FD507FCD41B6C2D4A8A
S21400290013F003035AD0012313608B6FDC07FCD44B
S2140029100B6C23F003030B6420498B6F13F0010349
S214002920FBD10128136008BF4B6348E014B9FEF7DB
S214002930B5FC03E7FDF732FF8442F8D2FDF72EFF21
S21400294004F140038342F2D82046FDF72FFF00280B
S214002950EDD063696BB9FEF7A1FCFDF747FF0446AF
S214002960FDF744FF144B986023689D4663689847BC
S214002970E4E69DF89030012BEDD1CFE600500E40F6
S21400298000000E408C420E409A6F050018010004AD
S21400299000843208A4310E40B081E00F00300E40B3
S2140029A0EC0600208009C643EE060020F006002054
S2140029B0372110B7B40AC64300ED00E01360CA4BD7
S2140029C001221A60C94CDFF894A3DFF89493112013
S2140029D0FFF7DAFB012200210220FFF7FBFA636A09
S2140029E023F001036362C24B00251D60A36A23F037
S2140029F0070343F00603A362BE4BE362226BBE4BA3
S214002A0002F07F6213432363BC4B636304211120EF
S214002A10FFF7A4FCDAF80030636A0121484643F069
S214002A204058FFF775FCFDF77DFDDAF804104846C0
S214002A30C1F30141FDF7A6FDD4F80001C0F3042060
S214002A400130B9FBF0F0FDF7ABFD01221146022084
S214002A50FFF7C0FAC4F82480D4F8C83043F0010366
S214002A60C4F8C830B36AA64E2CAA0424B36508A9D5
S214002A7002F8984D35200895FFF7A8FD06238DF837
S214002A801730089B8DF8164013F4803F9D4D0AAC16
S214002A9000F05D82B36D8DF82830B36D8DF8293067
S214002AA0B36D8DF82A30B36D8DF82B30B36D8DF87D
S214002AB02C30B36D63F03F038DF82D309DF82E302B
S214002AC043F001038DF82E306C608F4B8F4A9A606E
S214002AD000264FF48071C3E900221E8259618C4A99
S214002AE08C4BDFF880829A60C3E90022596120226D
S214002AF0314638461E8206F04EFAFC2208238DF830
S214002B009320854A8DF8913025928DF8A13040F2B9
S214002B100172F823ADF89A208DF8A3307F4A804BD7
S214002B2027924FF00109384629938DF8989000F0C7
S214002B306FFC7C487C4B036031467C4B436000F066
S214002B40D9FC67A3D3E90023C8F80000CDE9002329
S214002B504FF0FF334FF0FF3200F010FF02224FF02D
S214002B60FF31D8F80000724C00F012FF714B24932E
S214002B70394603F50033D8F800002696259300F072
S214002B801FFD2146D8F80000267000F02BFF4646B1
S214002B9030B12146D8F8000084F8009000F022FFFB
S214002BA03068DFF8C4A100F0ADFF2178B5F9002049
S214002BB0306800F03DFC0146306800F0FEFE6C68B0
S214002BC0002C40F0DE815046FDF70CFDB37B64F32D
S214002BD00003B373584B594CDFF89081584D4FF0B3
S214002BE0200983F80193562283F80493002183F882
S214002BF0069304F10A0083F8079383F8059383F895
S214002C00089383F81D9306F0C6F94E484E4B4FF4D2
S214002C109072C4E90003328425234C4A6372012370
S214002C2013700022C8F800201B222A802CAA0DF15F
S214002C30150102F89C3D3E202372FFF7C7FC2CAA24
S214002C401E2302F89D3D14A93620FFF7BFFC2CAAD0
S214002C50394602F89E9D3920FFF7B8FC80BB3C4BF6
S214002C609DF8132018681B7924903B71002A00F009
S214002C7091811B2A28BF1B22531D8DF8123014A9E0
S214002C80531C0DF195008DF8933006F079F91CA8C9
S214002C90FDF7A8FC2F4A9DF812301288FA522CA98C
S214002CA09A1C51FA82F2002102F8201C1C98BDF8EA
S214002CB0741042F81F0C093322F81B1C8DF81230D2
S214002CC02CAA202302F89F3D1CA93A20FFF77EFC81
S214002CD0002854D1204B1A889B7849E0AFF3008037
S214002CE008354014000000009407C64300400E401C
S214002CF0A004C8432000050007450BD047A00200EB
S214002D000050084088010020581C0020701C00203D
S214002D10581B0020401B00205C9000004E900000D6
S214002D20A0900000E0210020450D0000D4210020E6
S214002D30140000203C00940000E100E0D4000020D5
S214002D407A010020D6BE898E55555500701D00208C
S214002D5054910000649100006791000000300E401E
S214002D6000F04902B0210020B8210020AC0300206A
S214002D708DF872300323ADF870208DF81130B14B0A
S214002D80B14800224FF00209C3E90022AF4B0360AE
S214002D9080F80490FDF730FAAD48AE4B036080F83B
S214002DA0049010230372FDF751FEAB48AB4B036053
S214002DB0AB4B80F80490C36080F80890A0F81090A1
S214002DC0CDE900394B4690E806001430FDF7F0F9DF
S214002DD09DF81310002900F0EE8014A8FDF760FEA1
S214002DE0A048A14B03604FF0100980F80490FDF74F
S214002DF003FA9E489E4A9F4B03604FF6FE7B0823CD
S214002E00C260A0F810B080F8049003720393FDF738
S214002E101DFE9948994A02600C220272984AC260C6
S214002E20A0F810B080F80490FDF710FE9548964A7A
S214002E30039B02604FF0020B944A80F80490C26035
S214002E40038280F808B0FDF701FE9148914B0360BD
S214002E50914BC36080F804900123038280F808B089
S214002E60FDF7F4FD8D488E4B03608E4BC3604FF626
S214002E70FE73038280F8049080F808B0FDF7E6FD44
S214002E8089488A4B03608A4BC3604FF6FE73038201
S214002E9080F8049080F808B0FDF7D8FD854B694AA5
S214002EA01A604FF6FF729A809DF81220202A05D8E5
S214002EB0931D63743946804806F062F89DF8112029
S214002EC0202A06D8931D84F839301CA97B4806F0C2
S214002ED057F8FDF7B9FF237BB27B43F0010323735A
S214002EE0237C02F0010203F0F00362F386132374DE
S214002EF0637C0BB906236374714BBAF80410B06890
S214002F00C4F81200998094F83830042161F3030362
S214002F1062F3861384F8383094F8393013B90623F0
S214002F2084F83930674BB068BAF80420C4F83A0021
S214002F309A80FDF7E5FF644C644B1B78002B7BD131
S214002F40634A136923F00403136130BFF4E70DF1FD
S214002F50170221462C20FFF739FB00283FF4B5ADB9
S214002F600DF1160207A93C20FFF730FB9DF82E3026
S214002F7020B19DF81C2062F30003A3E560F3000374
S214002F80A0E52068B060A288A3798AF80630AAF87F
S214002F9004201FE60E238DF812300A238DF8933096
S214002FA04C4B1A68CDF895205A681B7ACDF89920B4
S214002FB08DF89D306BE6092146480FE7EFF3108643
S214002FC072B600231A460DF119014348FDF72EFE8E
S214002FD03046FEF7D3F89DF8193013B10023C8F831
S214002FE00030D8F80020EFF3108672B6C2F50173F1
S214002FF09BB222440DF119013748FDF717FE034630
S2140030003046FEF7BBF8D8F8000018440328C8F886
S214003010000011D9B4F8009009F1040398420BD3CC
S21400302007D8608804284FF0000757D0062800F01D
S214003030C5810023C8F800302748FDF731FB00287B
S214003040BCD17DE7D00600207C2300206B910000D9
S214003050100500206E910000F4060020719100001B
S214003060329000009C230020749100006805002028
S214003070E112000085910000C00500209691000036
S214003080991C000008040020A7910000E4900000AE
S21400309018060020B8910000EB91000060040020A4
S2140030A0C99100005D090000B0030020DA9100001D
S2140030B0810C0000D8060020EC000020140100203F
S2140030C0E60000200E010020A8010020CC0600200B
S2140030D000ED00E05A910000401B002022796F802E
S2140030E009F1FF33082A9BB200F0DF801BD8042AC0
S2140030F0B74E39D0062A4ED0022A1AD1022B40F0FB
S2140031005981B4F805700022B7F5007F28BF4FF448
S21400311000770323114602203370A6F80170FEF7ED
S214003120A9F82F8085E7102A00F0F48003D80A2A31
S21400313070D0062294E0122A00F09B80522AF8D122
S214003140B4F80500FDF71AFC00283FF472AF037BC5
S2140031505B077FF56EAFA9F1030292B29D49B4F802
S2140031600500FDF759FC64E7042B79D1B4F8057027
S214003170B8B2FDF703FC58B1027A41687780022A9C
S21400318014BF0223012305203070737003205FE014
S2140031906F800A2264E0DFF840B2B4F80500B4F8A5
S2140031A00710CDF840B04FF00203A9F107028DF8E2
S2140031B0443092B20BF102030093019210AB0CCB99
S2140031C0FDF77EFD4FF6FF7A5045814604D16368D1
S2140031D0C3F30F236B80DCE7CDE900774FF00203E3
S2140031E08DF83430CDF830B001300CAB0CCB5146F6
S2140031F080B2FDF765FD50451CBF00F1FF3080B280
S21400320007233370A6F80190A6F8030000221146A3
S21400321004201DE0022B40F0CD80B4F80500FDF739
S214003220ADFB00283DD0037B990714D52B882CAA2C
S214003230013B22F88C3D10A9B4F80500FDF7C6FB4B
S214003240024648B9624BBDF824200B21197010992C
S214003250FEF710F8EDE602226368C3F30F236B80D7
S2140032605B4B20796988587001261E7059801A7148
S214003270CCE7B4F80500FDF781FB90B1037B1A0795
S21400328011D5A9F1030292B25249B4F80500FDF730
S214003290C3FB02460028DFD14D4B132119700146AF
S2140032A0D6E70122D8E70322D6E7A9F1050B1FFAD5
S2140032B08BFBBBF1020F02D0BBF1100F7CD1464B4B
S2140032C0B4F80500B4F8071010930023CDE90033D6
S2140032D08DF844B010AB0CCBFDF7F2FC4FF6FF7345
S2140032E0984206463FF473AF2B882CAA043B22F87C
S2140032F0963D09A9FDF76AFB024608B16E80AFE766
S214003300334BBDF81A205E8009211970911C597044
S21400331009993BE7A9F1050B1FFA8BFBBBF1020FDE
S21400332002D0BBF1100F47D10027B4F80500B4F85F
S2140033300710DFF8A4A0CDF840A0CDE900775FFA2B
S2140033408BFB8DF844B010AB0CCBFDF7B9FC4FF6F9
S214003350FF79484506463FF43AAFCDE90077CDF809
S21400336038A08DF83CB001300EAB0CCB494680B28D
S214003370FDF7A6FC2B882CAA4845A3F106030746B2
S21400338022F8963D18BF00F1FF3709A9304618BF4E
S214003390BFB2FDF71BFB02460028AFD10C4BBDF8B1
S2140033A01A205E8011211970111D59709F8009998D
S2140033B005204DE7042253E7024651E7074B1093DA
S2140033C010A90223CDE912771193FDF72BFF30E603
S2140033D07E010020AF010020B10100201100002076
S2140033E0FEE7000008B5FEF72FFF064B0649074A22
S2140033F08B4201D3FCF7A2FE52F8040F43F8040BED
S214003400F6E700BF10000020B400002054B1000012
S21400341038B5044600F0FBFA0FCC044D0FC594E80F
S2140034200F0085E80F00002038BD00BFCC26002026
S21400343047F6FF739A42F0B555D0022955D82C4B63
S214003440CE00981913F831108478012CB8BF0124E7
S21400345001290DD1C3781B1B23B1416831F9131024
S214003460914202DC1819C0B2F0BD013B1BB2F3E773
S21400347040680028F8D0B0F90050954204DBB0F957
S21400348002509542B8BF1546334428215B78A5F113
S214003490C80292FBF1F25242591E12B28A42A8BFEB
S2140034A00A464FF47A7700EBC2060132F188B66816
S2140034B012B215FB016121EAE1719A4201F5FA7137
S2140034C0B1FBF7F104DA00EBC206B6888E42EAD208
S2140034D000EBC20232F8040C884228BF0846A0421D
S2140034E038BF2046BFE7FF20BEE70020BCE700BF8E
S2140034F0CC26002070B50E46044678B1084D2B78D1
S21400350063B9084B186000F035F83146204600F0E5
S21400351021F8031C18BF01232B7070BD0020FCE7A8
S214003520F0260020EC2600200846114600F036B8AB
S21400353000B10C3003F0D4BF00B10C3000F02CBA50
S2140035407047431E012B03D9031F5842584170474A
S2140035500120704738B504460D46002100F02BFACE
S2140035602946204603F026FE00280CBF20460020F1
S21400357038BD000010B5044603F084F844B1054A8F
S214003580D4F88030002B08BF1346034A136010BDE2
S214003590636FFFDE413500001C00002010B50C46AE
S2140035A003F092F81CB103F0EDF80128FBD110BD32
S2140035B000B10C3003F004BA00B10C3003F018BAB6
S2140035C000B10C3003F058BE2DE9F04FDFF87091D3
S2140035D0594F85B004468DF80F308B46164604F0DA
S2140035E06FF8B9F8005004F079F800283BD1002EA7
S2140035F03DD0386003F0C6F8012864D1DFF844A156
S214003600A26EDAF80030E06E002B64D0934265D0EC
S2140036101D68116802680DB18D426ED0204603F019
S21400362011FD01220023CDE901230546D4F87C8054
S214003630B8F1000F72D0002211460DF10F0320469C
S214003640C04745BBD4E91A23CAF800203B60DEB960
S214003650029B002B58D1019B002B55D100252846F4
S21400366005B0BDE8F08F00233B6004F02FF8E36E52
S2140036703A689342BED1002BBCD05D45EED003F035
S21400368081F80128BAD01EE0C9F800B031462046BD
S21400369003F0DCFA05460EB9019B83B1B5FA85F056
S2140036A04009332100F00CFA9DF80F10204603F075
S2140036B0D5FC224BE16E1B68A4F10C009847284607
S2140036C005B0BDE8F08F012002F0FEFF03F05AF8C7
S2140036D00128FBD192E7116802689FE73968002944
S2140036E096D0814294D1B5EB0B024FF0000318BF81
S2140036F00122019302921D4698E7396811B10968C4
S214003700914205D0596889E7C9F800B00199BEE72B
S214003710002302931D460123019387E7217994F83D
S214003720B4309DF80F20994228BF1946204603F072
S2140037300CFA002DAFD185E7FC2600201C000020E7
S214003740F4260020F82600202DE9F04F074683B027
S2140037500E46FDF7DFFCFB6E824613B13B89B34293
S21400376057D0D7F86880B8F1000F60D0D8F8084076
S214003770002C5CD0D8F80C10002958D0FB6F0193B1
S214003780002B5CD04FF00009CC464D46A7F10C0B41
S21400379001E0D8F8084005EB450204EBC204013509
S2140037A0E289B24216D8228AB242584612D3B4F9F7
S2140037B01210B7F9F6C08C4501EAE17218DD97F8E9
S2140037C0A810FFF735FE3A798242814610D9D8F81C
S2140037D00C10A4468D42DCD3BCF1000F07D1504636
S2140037E0FDF7CCFC0124204603B0BDE8F08F64460C
S2140037F00023194622463846019DA84707F1B8031C
S21400380022463146384603F0F0F93E81FC6687F8DA
S214003810B490002331461A463846FFF7D5FE0446D4
S2140038205046FDF7ABFC204603B0BDE8F08F50468F
S214003830FDF7A4FC0324204603B0BDE8F08F9946AC
S21400384018461D4647F6FF7BA7F10C030FE097F8D6
S214003850A810FFF7EDFD3A7982428146CED9D8F816
S2140038600C10019B2046A94217D9D8F8084005EB52
S214003870450204EBC2040135E289B242F3D8228A3B
S214003880B242F0D3B4F9121001935945184601EA32
S214003890E172DCD14FF0FF09B0E700289FD0044664
S2140038A0ACE70000F8B50D1C18BF01250E4607460C
S2140038B01F21284600F004F90024304600F07EF967
S2140038C01F21284687F8C440C7E91A6400F0F8F8B4
S2140038D0F1684FF6FF721820E3B28B420BD3154601
S2140038E00A4A002313600A4A294638461360FFF73F
S2140038F02BFF2846F8BDB56800FB0353DD899542CB
S21400390002D2002DECD02A460134E5E7F826002046
S214003910FC260020008970470A7838B50546104610
S214003920FFF70FFE60B14C782046FFF70AFE38B16D
S2140039302243530704D42846BDE8384003F086B82F
S214003940012038BD00B10C30FFF7E6BF10B50446C5
S2140039500878FFF7F6FD58B14A781046FFF7F1FDF4
S21400396030B1042A04D02046BDE8104003F098B8D1
S214003970012010BD00B10C30FFF7E8BF30B4DDE920
S214003980024500B10C30CDE9024530BC02F02ABE3B
S21400399000B10C3002F084BF70B504460D461646E2
S2140039A0FFF7D2FE30B9324629462046BDE87040C1
S2140039B002F014BF70BD03F099BE38B5044600206F
S2140039C00D4600F0F9F84CB1D4F8883043B92946D2
S2140039D004F10C00BDE8384003F0D6B8E36FFFDE14
S2140039E0022038BD38B5044648880D4600F0E4F895
S2140039F04CB1D4F8883043B9294604F10C00BDE830
S214003A00384003F07DB8E36FFFDE022038BD00F0DB
S214003A10D4B838B505460C46FDF77CFBA9696B693A
S214003A200C4023436B61FDF7A9FB00200CB9002175
S214003A3038BD8021FCE700B10C3003F058BA00B165
S214003A400C3003F06EBA000007B502AA4FF40073FC
S214003A5022F8023D0749FFF7F2FFBDF80630B3F53E
S214003A60007F05D1022808BF002003B05DF804FBE4
S214003A700120FAE7002700200846114603F058B94F
S214003A8000B10C3003F01EBA38B5154658B100F137
S214003A900C0411B1204603F05BFA35B12046BDE8B0
S214003AA0384003F0A3BA0446F3E738BD024B19606A
S214003AB0024B1860FEE700BF200000202400002014
S214003AC008B528B9034B1960034B1868FFF7EEFFDB
S214003AD008BD00BF20000020EC260020034618B1D9
S214003AE05B7B0C3013B108475B78FFDE0220704723
S214003AF010B5044603F04AFE20460321BDE81040F8
S214003B0002F0CCBD00B10C30FFF7F2BF0149FFF761
S214003B10E5BF00BF657700000149FFF7DFBF00BFC4
S214003B203D77000070B51E46437805461446D3B16F
S214003B3091FAA1F1080A02F0E1FFE30703D528464F
S214003B4003F02DFE68B1AA20214603F035FE9DF84D
S214003B501020442082F00102314603F05BFE002074
S214003B6070BD5520F0E70220FAE710B49DF8044037
S214003B7001940C305DF8044BFFF7D4BF431C08D00B
S214003B80044AD2F83C311B0C1B0480B20343C2F833
S214003B903C3170470040084010B504460846FFF721
S214003BA0EDFFE36E33B15B6923B14A1C08BF6FF0CB
S214003BB001011960002010BD70477047024B31218B
S214003BC05B680120FFF77CBFB081E00F38B50D467B
S214003BD0044600F037FFAC4042F2107164094C43D3
S214003BE06423B0FBF3F0B4FBF0F038BD034B1A6867
S214003BF002609B8883800020704700BF2E00002054
S214003C000F4B0228D3F8883104D183F40010C0F398
S214003C1040507047012805D113F4400F0CBF012017
S214003C200020704748B9074A506A10F0010005D0D6
S214003C3083F48000C0F3805070470020704700BFB8
S214003C4000400E40B081E00F0B4B5B88B3F5E16F90
S214003C5095BFC8235A237822502298428CBF172338
S214003C6010230B70054B1B7823B1904294BF0020A5
S214003C7001207047184670472E0000202C000020B8
S214003C8037B51E4B1B78032B044634D00DF10701C5
S214003C90FFF7DAFF1E2C8CBF19491A499DF807203A
S214003CA04FF001030B608CBF01240024164950B16D
S214003CB0164B4DF601751D60120203F1007342F4B7
S214003CC040421A608A810A7C22F00102024322F0F6
S214003CD0020242EA4402D3B20D4A0B74127852B979
S214003CE023F0040343EA800323F008038A89CA8189
S214003CF043EAC4030B7403B030BD00BF2E0000209F
S214003D000841084608410844D81F002104410844D9
S214003D10022900200A4B0B4AD3F88831DB4303F410
S214003D20FE1343F40053B3FA83F3C3F1FF2303F502
S214003D307F03F233C3EB4313013B1370704700BF9E
S214003D4000400E4036000020044B00281B780CBFB5
S214003D50042000201844C0B2704700BF3600002080
S214003D6030B51F234FF0FF34B0FBF3F35D1CC3EBFD
S214003D704313AC40C01AE443C0B2E4B2013014604E
S214003D80086030BD2DE9F3411646404A404C1268A3
S214003D90404F14403A78012A054688461AD144EA2C
S214003DA0006488F80000002333607B88B3F5E16F79
S214003DB08CBF5A23C82324F47F549D4224F0080461
S214003DC09ABF200A00F47F5043F6C870204302B022
S214003DD0BDE8F081304A1278904228BF1546002B85
S214003DE014BF042300232B440B70002D2FD12B4B24
S214003DF033606A46284601A9FFF7B2FF009A284BAF
S214003E0001981B7898F800C044EA823444F47F5442
S214003E1044F0080444EA0064FBB122493878224B97
S214003E20B2FA82F2C2F11F02022818BF0B46511CDA
S214003E3017D09B5CD8B2316821F07F433360BCF169
S214003E40000F10D143F0306343F00403ACE74FF0AB
S214003E503063013D3360EDB2CBE7FF204FF0FF3219
S214003E60E9E7FF20E7E7013203D0421ED2B2FD2A7F
S214003E7006D921F07F4323F0040343F07F4393E702
S214003E8043F0040343EA00638EE700BFD81F002117
S214003E903F00C0E02E000020360000200400000B8B
S214003EA003290020B883E00FB083E00FF7B504467F
S214003EB0C820FFF7E5FE284B284D1B78032B01D0C2
S214003EC0FF2C03D1FF20287003B0F0BD012B28D1B2
S214003ED0072C204628BF072001284FF0000301AA20
S214003EE00DF1030138BF0120FFF74CFF06461C4BBF
S214003EF01C4C019AC3F8582126609DF803002870D0
S214003F00FFF7BEFE019A130203F4E06343EA12636E
S214003F10154A238112780AB9666063819DF803000A
S214003F20D2E78BB9042C11D81F461846201A01AACE
S214003F300DF10301C0B2FFF725FF4FF480030646DC
S214003F4047B10A4A1360D2E70023EDE701231F4674
S214003F500420EBE7064AF5E72E0000202D0000209F
S214003F6000400840D81F00210229002008410846CA
S214003F700841084408B500F047FF094B094A0028E5
S214003F8014BF18461046036823F47F125B0803F438
S214003F90FE1313430360044B4FF00072DA6108BD52
S214003FA000410840184108400040084008B500F0AD
S214003FB02BFF4FF4001330B1044A1360044B4FF04C
S214003FC000621A6008BD034AF7E700BF00410844D4
S214003FD02040084418410844014B1868704700BF49
S214003FE00429002070B505460E46C0B201F00F0148
S214003FF0FFF7ECFDC6F303110446C5F30720FFF7F1
S214004000E5FDC6F303210444C5F30740FFF7DEFDD4
S214004010204470BD434B1B682DE9F047D0F808518B
S214004020DFF82081404F414E03F4E073A3F5C072E1
S214004030002D08BF01258146504250413C4A116878
S214004040A9423C4910D10C7884420DD199F8A8C0F9
S21400405098F80040A44507D199F805C03C78A445D7
S21400406002D1B088BDE8F087B3F5C07F1560087050
S21400407054D099F8A830022B47D12F4B1B78002B31
S21400408014BFC82496240F212046FFF79FFDB5FADB
S21400409085F3B0FA80F29B1A002BC4BFC3F10F0A57
S2140040A0D840264BD8BF4FF00F0A85424FEA04404F
S2140040B0C3F8BC0003F1806303F1B80340F6FF7257
S2140040C038BF0AF1FF3A1A6003F100734FEA0A217B
S2140040D01960FFF787FFB08000F0B4FC04FA0AF41A
S2140040E04FF4FA735C4341F66A03B0FBF3F0144BEB
S2140040F0B4FBF0F40A2044431C6099F8A83088F812
S214004100003099F805303B70ABE7012B08D00A4B1E
S2140041101B78002B14BFF024B424B4E70024B2E7C5
S2140041203224B0E718600840340000202E0000203B
S21400413028000020002900200329002000600840F5
S2140041400429002035000020FF280BD00D4B0E4A16
S2140041501A600304000503F4E02300F0F870184327
S2140041600A4B1860FF290BD0064B40F2F7121A6074
S2140041700B0103F4F87301F007011943034B1960B0
S214004180704700BF504108440000F7015041084600
S21400419008B50D4B186800B10C3000F025FE092854
S2140041A010D80A4B01281B5C05D1094B1B78012B44
S2140041B014BF0423442303F00F011809BDE8084088
S2140041C0FFF7C2BFFA23F6E7EC260020289200008D
S2140041D02E000020F8B52D4F2D4C2E4E054600F033
S2140041E0FFFB14220021384604F0D5FE2878FFF79E
S2140041F007FD28B903232370FF2333700120F8BD81
S2140042002B682360AB88A380C820FFF739FDFF2307
S2140042103A683370204B13402278022A18D11F4A7E
S2140042204FF4EE41116002F100724FF48A411160C2
S21400423043F08043012142F8041C3B60184B0322E4
S2140042401A60FFF7A5FF174B01221A700020D6E769
S214004250012A154C1549164A4FF0070509D10620C4
S214004260256008601349116043F003034FF4404192
S214004270E1E7052025600860C02111600E4A43F082
S2140042808043812143F004031160D6E7D81F002144
S2140042902E0000202D0000202800C0A02441084445
S2140042A058410844012900200C4108440C410846A6
S2140042B008410844C1004000084108462DE9F84F6F
S2140042C02F4F304B3B6000F0BDFB4FF4FA734FF4BA
S2140042D07A76DFF8C880B0FBF6F56B434FEA032A20
S2140042E04FEA136B1AEB08004FF000094FF000037B
S2140042F0254A4BEB090104F09DF8A0F580730446AF
S214004300BB6218B92B21FFF7DBFB012406FB04F286
S214004310002756084FEA0528B8193B4648F1000121
S21400432004F088F8194B1960194B4FEA0468814667
S2140043308A461860240A25B928462B21FFF7C0FBB9
S21400434001254FF47A73A8FB036703FB04776C0818
S214004350301947F100012A46002304F06BF80D4B94
S214004360074A19600C4B19F1020618604AF100075B
S214004370B30843EA8773013B1363BDE8F88F00BFB9
S214004380005008400011010040420F001429002090
S214004390102900200C2900200829002020A1070051
S2140043A0044B4FF00052C3F880211A60024B0122E2
S2140043B05A60704700E100E000500840054B0201DB
S2140043C0134401221A604FF4807303FA00F0024B84
S2140043D05866704700510844005008402DE9F047E1
S2140043E0144684B005460E469A46FCF793FE022C09
S2140043F000F0C6800746FCF7BDFE7D4B7D497E4A31
S214004400D3F8188091F8109012685FFA89F91AB1FB
S214004410D3F8188009F10109FCF7E2FE77487849DD
S214004420D0F800C0D1F800E009F00303002242EA09
S2140044300802ACFB02891946CDE900891046CDE991
S21400444002014FEA8178019900230CFB03130193C4
S214004450DDE90001029B10F1004041F100010EFB76
S214004460038E012C8E4409BF3168D6F800C0013196
S21400447001EB0E0CAEEB0C0E08BFC6F800C0BEF18A
S214004480804FC0F083805F485F49D0F80090DFF827
S21400449060E1D1F80080DEF830E02CF040464FF0C6
S2140044A000400021E6FB090108FB061676454FEAA8
S2140044B09C7C304607D90EF1010E0CF1010CB6EBD0
S2140044C00E000CF0030C4FF00008E14648EA000826
S2140044D049464046DDE90289A1EB090E8045CDE953
S2140044E0000184BF0EF1FF3E41490EF00303DFF8E2
S2140044F034E188BF096B4246D9B2861A0EF8051019
S21400450000294AD13A49009A01EB051C05F110032F
S2140045101B01CCF80C214FF0110C41F803C0029A95
S2140045208B69D1F85CC09A1AB24228D34FF48073D4
S214004530AB401CEA030F22D11EF80520002A45D105
S214004540002C49D01AF0010F0B6608D02F4B3049CB
S21400455041F61F7240F201101A6008601A601AF0E5
S214004560020F06D0294B2A492A4A2B481A600860AF
S2140045701A601AF0040F1EBF284B01229A603846B4
S214004580FCF7FCFD012004B0BDE8F0873846FCF7D8
S214004590F5FD002004B0BDE8F0871AF0010F1EBF3D
S2140045A01A4941F61F7CC1F800C01AF0020F1EBF60
S2140045B01649DFF860C0C1F800C01AF0040F1EBF2D
S2140045C00B494FF0000CC1F870C09BE738460B66ED
S2140045D0FCF7D4FD0120D6E7114A2D012A44012517
S2140045E0384615604B66FCF7C9FD2046CBE700BF92
S2140045F000500840212A0020880B0A430829002082
S2140046000C29002010290020142900206C50084492
S2140046106C50084600001F1F0000010100400840C3
S214004620005108441C2A00201030034B0001185883
S21400463000F00100704700BF00500840103001F441
S21400464060010001024B41F003011950704700BFA2
S2140046500050084038B5FCF78DFD094A094B9D69A6
S214004660147C094A1268E4B20AB19D690134FCF769
S214004670B7FD002204F0030342EA0500194638BDE0
S214004680212A002000500840880B0A4308B5222043
S21400469000F0EAF8024B4FF480225A6008BD00BFD3
S2140046A0005008400A4B2DE930481C68094B1D682D
S2140046B04443A5FB00BC04EB8174002105FB01CC40
S2140046C01BF100424CF10003E018BDE8308800BF43
S2140046D00C2900200829002008B5FFF7BBFFBDE81D
S2140046E00840FFF7DFBF10B50446FFF7B3FF84426C
S2140046F002D9003041F1FF31002201F0030342EA03
S21400470004001946BDE81040FFF7CCBF104B114916
S2140047101B68096B2DE9304820F040424FF00044FA
S2140047200025E2FB03450C4B1B6803FB02528A4242
S21400473014464FEA907304D901310133541A03F03A
S21400474003034FF0000B4BEA04001946BDE830881F
S21400475010290020005008401429002038B50446CF
S214004760FFF7BAFF0546FFF7B7FF401BA042FAD394
S21400477038BD000038B5344B344C082205461A6064
S21400478001213348FDF7D4FE324B1D702378013BE0
S214004790012B0CD8237CE07B01229A400C2130238D
S2140047A013FB001303F1884303F520431A602A4BDA
S2140047B000225A67002D40D06368002B33D000F0EB
S2140047C041F9626800EB5203B3FBF2F3013B1B02B4
S2140047D043F0F8032278022A27D0032A29D0012A98
S2140047E02ED143F0020307221C494FF6FF700860E3
S2140047F001F100710B60184B5A6753070CD5237CE8
S214004800E07B01229A400C21302313FB001303F1B6
S2140048108C4303F520431A604FF0804395B1104A4D
S2140048201360002038BDF823D4E743F001030522C7
S214004830DAE743F005030122D6E72A46F823D3E752
S2140048400022D1E7074AEBE7C8400E461C290020A5
S21400485000350A0018290020000008407C000844A3
S2140048609440084694400844044BD3F89430002BF8
S214004870BCBF034BC3F88000704700BF0040084031
S214004880000008404FF0006310B1024A1360704702
S214004890014AFBE7944008469440084408B5064B96
S2140048A006491A684FF00450920004F069FBBDE810
S2140048B0084000F0F1BB00BF3CAC00007092000066
S2140048C0C0F30062034B33F8123080B240EA034074
S2140048D0704700BF3292000007B501A8FCF71EFC27
S2140048E0154B164AC3F8442148F2E672C3F838213D
S2140048F04FF40862C3F83421114AC3F8A020114AC5
S2140049004AF63F41916002F580424FF0C0719162D5
S2140049100022C3F8FC200C4AC3F89C2003F18063F5
S214004920A3F6DC737F221A6003F1007323221A6059
S21400493003B05DF804FB00BF00400840C0E65351DA
S2140049407A27000F00300840806D630330B50A4BAD
S2140049500A480B4C0B491A6842B102EA0005A54208
S21400496004BF5D68156008338B42F4D1064BD3F85C
S2140049703C21064B1A6030BD0080E00F0000FFFFB0
S21400498000000840B081E00F004008403C000020D6
S2140049900F4B002210B5C3F88820C3F88C20C3F84C
S2140049A090200C4A012111605A6812F0706FFBD1FA
S2140049B04FF00452DA6702F5FD5201241032C3F8B4
S2140049C080401A66044B1B689847044B1C6010BD59
S2140049D0004008400C400846380000200C400844C0
S2140049E0034BFD22C3F8C8200122C3F8CC20704731
S2140049F000400E4008B5FFF7F3FFFFF7A7FFFFF7ED
S214004A006BFF0C4B03221A600B4B4FF4C012C3F81B
S214004A10942003F1C063943301221A6000F036FB41
S214004A20064B4FF460721A60054A4FF040731360ED
S214004A30936108BDD8600846004008400C40084610
S214004A40F840084608B5FDF70DFC044BD3F81031C6
S214004A50C3F308230133B0FBF3F008BD00400E405B
S214004A60F8B5044628B102F0A1FE012521684B1CCA
S214004A7000D1F8BD0846C1F30746FFF721FF012E17
S214004A8003460CD9B600A1192246031B9F1852F8FC
S214004A90040F38608A42F9D104363444E6E7090F39
S214004AA0606808340729E1D8DFE801F00A04081135
S214004AB00C0F1417C04303F1806301E01A685040DE
S214004AC01860D3E7FFF74AFED0E705FA00F003F1D7
S214004AD0C063F5E705FA00F0EDE71A6830EA02026F
S214004AE0FBD1C3E708B5FFF7ADFF064A126D0346D4
S214004AF090B228B1C2F30742DB085343B3FBF0F091
S214004B0008BD00BF0060084010B50446FFF7EAFF86
S214004B10104BD3F8302112040F4A126C02F4C05224
S214004B2048BF4008B2F5805F0ABF1B6BC4F3011391
S214004B30C3F34163022B05D0032B09D0012B00D110
S214004B40400810BDC4F3C4240134B0FBF4F0F8E709
S214004B508008F6E7006008400000084000F03003D8
S214004B60202B10B512D1C0F302441CB1C0F3C423ED
S214004B70B3FBF4F410F4C01F18BF64006408032CE1
S214004B8028BF0424FFF7C0FF604310BDC0F38213A4
S214004B90012B01D0042B01D10224F3E70124F1E715
S214004BA02DE9F8431A4EDFF870800746B146FCF749
S214004BB0B1FA7568D8F808309B09C3F309049B0559
S214004BC0D9F80430C3F3036348BF6FEA8454A3F1F3
S214004BD0020348BF6FEA9454012B24B211D8C5F3E0
S214004BE00365023D012D8CBF00250125FCF7C6FAA2
S214004BF014F5007F07D10DB1002FD8D12046BDE8AF
S214004C00F8830025F2E7034B002D08BF1C46F5E7A6
S214004C100040084000FEFFFF00700840024B0122E3
S214004C2018619A60704700BF00200840084B10B516
S214004C30D3F8702118B902F00F0010BD224659684B
S214004C40D3F87041A242F9D1C1F303630370F2E7CF
S214004C5000400840024B1B6803B11847704700BF6E
S214004C603029002030B5164C164A2568164C936B32
S214004C70246805FB0343146B144A154D1268E402BE
S214004C804CBF9B189B1A134C134AB3F1804F88BF36
S214004C901446124AB3FBF2F22A445278D3400B6011
S214004CA00F49B3FBF1F10D441203697803EB54038B
S214004CB042EA8122B3FBF4F3013B1343036030BDA9
S214004CC034290020003008403C29002038290020E4
S214004CD036920000E0673500C0CF6A0040BE40252F
S214004CE0401B5F1338B505460C46FDF749FA0246E9
S214004CF018B92B21FEF7E4FE0122B5FBF2F364207F
S214004D0002FB13556843B0FBF2F000B9013B5A08AA
S214004D10013A01335B08072A03F1FF330D4903D834
S214004D20072B01D89AB993B9002008700A48097869
S214004D30062505600948007821B118B10849022007
S214004D40086000201B0243EA0213236038BD0120DE
S214004D50EBE700BF41290020944008444229002088
S214004D609440084638B5154D2B780C4623B9144B9D
S214004D701B6D03F03F032B70124BD3F894305B0689
S214004D801AD5114BB0FBF3F040F24D534343A3F555
S214004D9046430C3B584300F5C91000F5556018B95A
S214004DA02B21FEF78DFE01202A78084B5343B3FBD8
S214004DB0F0F02060002038BD0220FCE743290020E8
S214004DC0003008400040084000366E01809698008B
S214004DD0014B1868704700BF3C290020014B18683B
S214004DE0704700BF34290020064B1B68C3F3C2027D
S214004DF003F0070002B15043C3F3821303B15843D4
S214004E00704700BF34300840034BD3F8380180F0B9
S214004E101000C0F3001070470040084061B1074B17
S214004E20B3FBF1F3984207D3054BB3FBF1F188428D
S214004E308CBF00200120704700207047003717897C
S214004E40007DDAAC2DE9F047894614469A46DDE93E
S214004E500886FFF7C9FF054601464846FFF7DEFF0E
S214004E6020B90E21FEF72CFE022033E0FDF788F96C
S214004E700746002DF8D00028F6D015F1FF3318BFEE
S214004E800123CAF800301E4B1B68C3F3130300EB64
S214004E905502B2FBF5F2A2FB0301C20C194B42EA23
S214004EA041321A60184BC3F800900A9B09FB05F1C3
S214004EB01960164B1C60164B9F420DD1154B6C4368
S214004EC0A1FB0301A4FB03458A09AB09C8F800202F
S214004ED033600020BDE8F0873A460023C804490B3B
S214004EE003F0A8FAC8F80000E004630BA0FB050175
S214004EF005FB03113A46002303F09CFA3060E8E70E
S214004F0030300840382900203C2900203429002071
S214004F1000F049020A3BB2DF1FB501A902A8FFF75D
S214004F20A1FE0B4B43F6FF521A6003F10073029A80
S214004F301A6003A90198FFF7D5FE064B4FF4EE6200
S214004F401A60039A03F100731A6005B05DF804FB5B
S214004F50A44008443040084438B50D4B05460C467E
S214004F605868C0F303600428FAD00A28F8D0B0FACC
S214004F7080F00F214009FEF7A3FD064B9D631CB190
S214004F8003F5805380229A60BDE83840FFF7C4BF1F
S214004F90004008400030084038B5154B154C164DFB
S214004FA04FF40022B0F1804F8CBF20461846134BBA
S214004FB02A601B68D3B1124B124C1B6F00F5F4200D
S214004FC000F59070B0FBF4F4033CE4B203F0070382
S214004FD0A34202D02046FCF7BBF80B4B1B782BB144
S214004FE00A4B4FF4702224041A602C6038BD00BFB0
S214004FF0E0673500C0CF6A00944008468009C64383
S21400500000300E4040420F004029002094400844E3
S21400501030B5134B0446186887B000B10C3005ABAA
S2140050200293104B0193103B0093D4E9001204AB9B
S214005030FFF708FF054668B9049A10236AB10A4AC2
S21400504013600A490598FFF78DFEFFF765FF206895
S214005050FFF7A2FF284607B030BD054AF0E700BFBD
S214005060EC2600203C3008403841084650300840C6
S21400507038410844034B01221A70034B1868FFF7A7
S2140050808BBF00BF402900203C290020014B402256
S2140050901A6070479440084670B5104C0FCC86B026
S2140050A001AD0FC5BC2223680D482B60002103F01C
S2140050B072FF7C2200210B4803F06DFF0A4B0B4A5F
S2140050C05A6002F029FF0A4B1B782BB101AD0FCDB9
S2140050D0024E0FC62B68236006B070BDD81F002195
S2140050E0441F0021C81E0021EC1F00213F0037008E
S2140050F0012900202DE90048FCF70CF8144B19781C
S214005100E9B9144BD3E900234FF0000C02F4084B26
S2140051105BEA0C0313D1104B10221A600D4BD3E937
S21400512000234FF0000C02F4807B5BEA0C030BD1EB
S214005130094B20221A60BDE80048FCF71FB8074B51
S21400514010221A600029E9D0044B20221A60F2E7E8
S21400515051290020482900209440084494400846DD
S214005160044B00221A70044B197811B11A70FFF71D
S214005170C1BF704752290020512900200D4A0E4B0E
S214005180A020D3F888101060102042F8880C0B4836
S2140051904FF0007202600A488906426608D502F19E
S2140051A01F2244321269B2F5817F24BF80229A60A2
S2140051B0704700BF884008440040084068500844D4
S2140051C00050084008B5FBF7A5FF0A4B5B68C3F321
S2140051D00363032B06D1084A136823F0F00343F059
S2140051E0E0031360054B40F201225A62BDE8084016
S2140051F0FBF7C4BF00400840441F002100000840E1
S21400520008B5FBF787FF234B4FF08052C3F880208A
S214005210BFF34F8FBFF36F8F4FF48072C3F88020B9
S214005220BFF34F8FBFF36F8F0222C3F88020BFF308
S2140052304F8FBFF36F8F1022C3F88020BFF34F8FBE
S214005240BFF36F8F2022C3F88020BFF34F8FBFF3CA
S2140052506F8F4FF00052C3F88020BFF34F8FBFF31D
S2140052606F8F8022C3F88020BFF34F8FBFF36F8FFE
S2140052704022C3F88020BFF34F8FBFF36F8F012209
S214005280C3F88420BFF34F8FBFF36F8FBDE808408D
S214005290FBF774BF00E100E02DE9F84F0A9E0B9F74
S2140052A08046894602EA000A03EA010B3740002ED0
S2140052B03FD1002908BF01281ED0C0F087810029F1
S2140052C008BF042850D1FBF725FFC149D1E90023C8
S2140052D022F0040444EA0A0243EA0B03C1E900236D
S2140052E05AEA0B0314BFBB4ABB4A4FF480631360F1
S2140052F0BDE8F84FFBF742BFFBF70CFFB449D1E916
S214005300002322F0010443EA0B0344EA0A02C1E93F
S2140053100023B24A5AEA0B034FF001031DBF936302
S21400532002F1C0623C32AE4912BF13600B60936359
S214005330DEE758EA090317D1012E15D1FBF7EAFE7E
S214005340A84A136823F001033B4313604FF48063BD
S214005350A54A2FB1536602F1C06268321360C7E7F0
S214005360A2490B605366C3E7FFF74AFF984BD3E9A1
S214005370004525EA090242EA0B0924EA0801994A8F
S21400538041EA0A08C3E90089136823EA06063E4391
S2140053901660FFF7AFFE08F02A5200231343944A24
S2140053A09449126848F2020308BF4FF40043B0075E
S2140053B048BF43F4005322EA03070F6001F17C4123
S2140053C083EA0200043923EA02038B4A086013606A
S2140053D0002308F40032134308F480204FF0000145
S2140053E014BF4FF48053002350EA010208F0100067
S2140053F04FF0000118BF43F4807350EA010208F032
S21400540020004FF0000118BF43F4005350EA010299
S21400541008F040004FF0000118BF43F4007350EA54
S214005420010208F080004FF0000118BF43F48063CB
S21400543050EA0102714A7249126818BF43F40063C9
S21400544022EA03070F6001F17C4183EA0200043977
S21400545023EA02036B4A0860136009F08003002207
S214005460134308F480504FF0000114BF4FF480231C
S214005470002350EA010208F480304FF0000118BF04
S21400548043F4803350EA010208F002004FF00001B6
S21400549018BF43F4801350EA010208F480104FF05E
S2140054A0000118BF43F4001350EA010208F400207C
S2140054B04FF0000118BF43F4002350EA010209F040
S2140054C004014FF0000018BF43F4003350EA010215
S2140054D04D4A4E4818BF43F480037107116848BF11
S2140054E043F0040383EA010222F001021140016046
S2140054F0474913400A60474A1360474A474B16F02D
S214005500010F4FF0000009F0010118BF134650EAE2
S2140055100102434A3549126818BF43F4001322EAD1
S21400552003070F6001F17C4183EA0200043923EA95
S21400553002033C4A086013603B4B29491B6808F08D
S214005540010423EA04070F6001F17C4183EA0400AA
S21400555024EA03020439354B08601A6008F4001286
S21400556000231343324A334B1B4808F004044FF021
S214005570000518BF134654EA050218BF43F48063BB
S21400558032072D4A116848BF43F0004383EA010200
S21400559022F4A02211400160284913400A600D4AF7
S2140055A01360FBF7B7FD264B4FF080521A604FF49E
S2140055B080721A6010221A6020221A604FF0005281
S2140055C01A6080221A6040221A6091E6BDE8F88FC1
S2140055D048290020EC100846EC10084400700840EB
S2140055E03C70084444290020005008406850084495
S2140055F06C0008406C0008446C0008460C620840CA
S2140056000C6208440C6208462040084020400844CB
S2140056101C40084020400846041C50000418500057
S21400562068500840685008463C7008403C70084681
S2140056300D0A0A09090A0A09EC100840E810084091
S21400564000E100E0024B5868C0F34000704700BF1E
S21400565048290020024B186800F00100704700BF80
S2140056604829002010B50446FFF7C4F9FFF7C8FD27
S21400567004F1280002F06CFAFFF78AF9FEF71EFE26
S214005680FEF78EFE02F0C4FC072104F1800002F053
S2140056901FFD4FF440010020FEF7D0FF4FF400112D
S2140056A00120FEF7CBFF02F09FFE10B91421FEF793
S2140056B007FAFFF7DFFC0120BDE81040FFF75AB8F5
S2140056C0044B80221A60044A136823F020031360F8
S2140056D0704700BF88400846C81E0021674BDB683D
S2140056E0DA0740F185802DE9F04B0C4682B005467E
S2140056F0FBF710FD23790022022B064600923FD1CD
S214005700237B022B35D00320FEF78EFF20B95C4B9F
S2140057105B685B0440F19F80A37B277B5949A268A6
S2140057200192003318BF0123012F0B7062D0564C34
S2140057305649227800230B70002A66D14F4D04206C
S214005740FEF73CFEEB6E23F0F85323F4F81343F019
S214005750506343F48033EB663A46022301A90420E3
S214005760FEF73CFE002871D0494B01213022217003
S2140057701A603046FBF702FD002002B0BDE8F08B51
S2140057800320FEF751FF002865D12179B5F8902057
S2140057902368012956D09B1A0093384B3D4ADA6697
S2140057A000221A67617B3C4A3C4B00290CBF012152
S2140057B0002111704FF001021A70394A13680CBFAD
S2140057C043F0200323F0200313600320FEF7F6FDCA
S2140057D02A4B344ADA662279012369460320FEF70B
S2140057E0FDFD00288CD13046FBF7C8FC0120C4E73D
S2140057F0032070472379022B99D0B5F89030009992
S2140058000B441A440192002791E72370FBF782FCB1
S21400581023783BBB244BD3E900BC4FF000090BF4C4
S214005820084858EA090321D1204910250D600BF4D9
S2140058308072002313431DD0154B20221A60FBF7FD
S2140058409DFC7BE79342A6D20090A6E70320FEF7D6
S214005850B5FD104BEB663046FBF790FC032002B01C
S214005860BDE8F08B0A4B10221A60E5E708491025C0
S2140058700D60DCE70D4B20221A60E0E70050084080
S21400588000400840542900205129002052290020B9
S21400589094400846000001015529002053290020A5
S2140058A0C81E0021010C010048290020944008442D
S2140058B0F7B5214DEB68DA0707463AD5FBF72AFC21
